:100000000C945C000C946E000C946E000C946E00CA
:100010000C946E000C946E000C946E000C946E00A8
:100020000C946E000C946E000C946E000C946E0098
:100030000C946E000C946E000C946E000C946E0088
:100040000C94B4010C946E000C946E000C946E0031
:100050000C946E000C946E000C946E000C946E0068
:100060000C946E000C946E00000000002400270029
:100070002A0000000000250028002B0004040404CE
:100080000404040402020202020203030303030342
:10009000010204081020408001020408102001021F
:1000A00004081020000000080002010000030407FB
:1000B000000000000000000011241FBECFEFD8E0B8
:1000C000DEBFCDBF21E0A0E0B1E001C01D92A731AD
:1000D000B207E1F70E94FE010C9417030C94000094
:1000E00090E0FC01EC55FF4F3491FC01E057FF4FCD
:1000F0002491FC01E458FF4FE491EE2309F43BC046
:10010000332339F1333091F038F43130A9F0323003
:1001100001F584B58F7D12C0373091F03830A1F0F1
:100120003430B9F4809180008F7D03C080918000CD
:100130008F77809380000DC084B58F7784BD09C010
:100140008091B0008F7703C08091B0008F7D809345
:10015000B000F0E0EE0FFF1FEE58FF4FA591B491F5
:100160008FB7F894EC91611103C020952E2301C044
:100170002E2B2C938FBF0895CF93DF9390E0FC013B
:10018000E057FF4F2491FC01E458FF4F84918823EE
:1001900061F190E0880F991FFC01E859FF4FC5916C
:1001A000D491FC01EE58FF4FA591B491611109C0A3
:1001B0009FB7F8948881209582238883EC912E2321
:1001C0000BC0623061F49FB7F8943881822F80951C
:1001D00083238883EC912E2B2C939FBF06C08FB76F
:1001E000F894E8812E2B28838FBFDF91CF9108955B
:1001F0001F93CF93DF93182FEB0161E00E94BC00A7
:10020000209711F460E004C0CF3FD10539F461E0DC
:10021000812FDF91CF911F910C947000E12FF0E0BE
:10022000EC55FF4FE491E330F9F048F4E130B9F0D8
:10023000E230A1F584B5806284BDC8BD34C0E7302A
:10024000E9F0E83019F1E43049F5809180008062EE
:1002500080938000D0938B00C0938A0024C084B523
:10026000806884BDC7BD1FC0809180008068809376
:100270008000D0938900C093880015C08091B000A1
:1002800080688093B000C093B3000DC08091B0002F
:1002900080628093B000C093B40005C0C038D1051F
:1002A0000CF0B5CFAFCFDF91CF911F9108953FB73D
:1002B000F8948091130190911401A0911501B091CF
:1002C000160126B5A89B05C02F3F19F00196A11D68
:1002D000B11D3FBFBA2FA92F982F8827820F911DDC
:1002E000A11DB11DBC01CD0142E0660F771F881F23
:1002F000991F4A95D1F708958F929F92AF92BF921E
:10030000CF92DF92EF92FF920E9457014B015C0166
:1003100088EEC82E83E0D82EE12CF12C0E945701E4
:10032000DC01CB0188199909AA09BB09883E9340D1
:10033000A105B10558F021E0C21AD108E108F10881
:1003400088EE880E83E0981EA11CB11CC114D10454
:10035000E104F10419F7FF90EF90DF90CF90BF9088
:10036000AF909F908F9008951F920F920FB60F92AB
:1003700011242F933F938F939F93AF93BF938091BB
:100380000F0190911001A0911101B09112013091D3
:100390000E0123E0230F2D3720F40196A11DB11D7E
:1003A00005C026E8230F0296A11DB11D20930E0162
:1003B00080930F0190931001A0931101B09312014B
:1003C0008091130190911401A0911501B091160133
:1003D0000196A11DB11D8093130190931401A09368
:1003E0001501B0931601BF91AF919F918F913F91ED
:1003F0002F910F900FBE0F901F901895789484B591
:10040000826084BD84B5816084BD85B5826085BD10
:1004100085B5816085BD80916E00816080936E009E
:100420001092810080918100826080938100809190
:100430008100816080938100809180008160809341
:1004400080008091B10084608093B1008091B00001
:1004500081608093B00080917A00846080937A00FC
:1004600080917A00826080937A0080917A00816026
:1004700080937A0080917A00806880937A0010924D
:10048000C10082E090E0909305018093040183E035
:1004900090E090930D0180930C0184E090E09093A4
:1004A0000B0180930A0185E090E09093090180930D
:1004B000080186E090E0909307018093060189E0AF
:1004C00090E090930301809302018AE090E0909382
:1004D00001018093000160E082E00E94BC0061E0C5
:1004E00083E00E94BC0061E084E00E94BC0061E007
:1004F00085E00E94BC0061E086E00E94BC0061E0F3
:1005000089E00E94BC0061E08AE00E94BC0061E0DA
:1005100089E00E94700061E08AE00E94700040E083
:10052000C42E40E0D42E34E6E32EF12C00910C01D1
:1005300060E070E0802F0E94F80010910A0162E3F1
:1005400070E0812F0E94F800D091080162E370E012
:100550008D2F0E94F800C091060160E070E08C2FA2
:100560000E94F80081E0E81AF10801F70E947C017E
:1005700024E6E22EF12C62E370E080910C010E94EF
:10058000F80060E070E0812F0E94F80060E070E009
:100590008D2F0E94F80062E370E08C2F0E94F8001B
:1005A00081E0E81AF10839F70E947C0194E6E92E0F
:1005B000F12C62E370E0802F0E94F80060E070E0B0
:1005C000812F0E94F80060E070E08D2F0E94F800FB
:1005D00062E370E08C2F0E94F80081E0E81AF108D5
:1005E00041F70E947C0184E6E82EF12C60E070E087
:1005F000802F0E94F80068EC70E0812F0E94F800C4
:1006000060E070E08D2F0E94F80062E370E08C2FB4
:100610000E94F80081E0E81AF10841F70E947C018D
:10062000C114D10409F47FCF0E9400007CCFF8945C
:02063000FFCFFA
:00000001FF
